:020000041000EA
:10000000E8700010D5000010E3000010E5000010BB
:10001000E7000010E9000010EB00001000000000F5
:10002000000000000000000000000000ED000010D3
:10003000EF00001000000000F1000010F3000010BD
:10004000B50B0010950B0010A50B0010E90A00106D
:10005000F5000010050D0010F5000010E509001076
:10006000F5000010000000007D0F0010190F0010B7
:10007000F5000010F5000010F5000010F50000106C
:10008000F5000010F50000102D0C0010490E0010B6
:100090007D0E0010B10E0010E50E0010D10F001003
:1000A000F5000010F5000010F50000100000000041
:1000B00000000000F5000010F5000010F500001031
:1000C0000348854600F016FC0048004775420010C2
:1000D000E870001008490868084A1043086008489A
:1000E0000047FEE7FEE7FEE7FEE7FEE7FEE7FEE786
:1000F000FEE7FEE7FEE70000800000400000004051
:10010000C10000100068704701607047F0B5844678
:1001100087B294B23D4685B0A64667430024019459
:100120000C04000C20437446029080B2009060439F
:1001300000263604040C2643019C0004C0198FB22B
:100140006641744667430024201877410E145643D5
:10015000360420187E412F4604901804120C0243E6
:100160009646002092B20192574300043A0C024393
:1001700004983F043F185641019A00985043324674
:10018000E6192F465041724651430904A2194141D4
:1001900098B247430298A2184F4158430504A0184B
:1001A0007D416246191405B0514309042018694184
:1001B000F0BDFEB5054610460C46184372D0AE465B
:1001C0008C460020AD1A01469C4166D36646012448
:1001D0000025B61A9D4102D313460022212465460C
:1001E00076462F04360C3E432D0CB61A9D4104D39F
:1001F000150C1B042B4312041034654676462F065B
:10020000360A3E432D0AB61A9D4104D3150E1B0231
:100210002B4312020834654676462F0736093E43C3
:100220002D09B61A9D4104D3150F1B012B43120152
:10023000241D65467646AF07B6083E43AD08B61A9C
:100240009D4104D3950F9B002B439200A41C65464F
:100250007646EF0776083E436D08B61A9D411AD3DD
:1002600092185B41641C16E00018764665464941C9
:10027000B71A9D410191009009D36046B11A984187
:100280008E468446009801990025401C6941DD078F
:1002900052082A435B08641EE6D57246634603B0E3
:1002A000F0BDFFE700200146C046C0462A4623466F
:1002B000F5E730B50B46014600202022012409E075
:1002C0000D46D5409D4205D31D469540491B254608
:1002D000954040191546521E002DF1DC30BD70B519
:1002E00000242546002801DA01244042002901DAD1
:1002F00001254942FFF7DDFFAC4200D04042002C0F
:1003000000D0494270BD10B5202A06DBCB17084645
:10031000203A1041C1170B4306E00B461341D04071
:100320002024A21A91400843194610BD0549064AE7
:1003300008685043054A8018086040087047014922
:1003400008607047185F00106D4EC64139300000DC
:1003500003460B439B0703D009E008C9121F08C0DE
:10036000042AFAD203E00B780370401C491C521E89
:10037000F9D27047D2B201E00270401C491EFBD294
:1003800070470022F6E710B513460A4604461946A0
:10039000FFF7F0FF204610BD421C0178401C0029E9
:1003A000FBD1801A704730B504460020034600E0B8
:1003B0005B1C934203D2E05CCD5C401BF8D030BDA7
:1003C00003460A780270401C491C002AF9D11846DD
:1003D000704770B5064600F09BFE046805460A2289
:1003E0000021304600F0EEF92C6070BDF0B50746F4
:1003F0000846584087B0C00F049048000E46590088
:1004000040084908BC1A884105D2384631461E4684
:1004100017460B4602465800400810434CD0300D9A
:10042000039040055900400D490D0590401A029077
:10043000402872DA18030121000B090508430190D6
:1004400004980092002805D001995242002088416A
:1004500000920190029840210A1A0199009800F038
:100460008FF905460C466B4607CBFFF74CFFC019CA
:100470007141039A0E0D0023D71756401A467A4051
:10048000164344D0049A002A2DD0029A012A039AD6
:1004900015DC1205C01A914101263605001C714178
:1004A000D20F059ED2070093019202962A46234658
:1004B00000F0CDF907B0F0BD38463146FAE7160531
:1004C000224A0F46B218C01AB74101210905001C83
:1004D0004F4100187F41114618187941E20F10432F
:1004E0006D19644113E0E2076D0815436408C20703
:1004F0001443039A01261205C01A91413605001CC7
:100500007141CE07400830434908C01851412A467E
:10051000234600F08FF9CDE7FFE704980122400061
:10052000C117121A00238B4104983146C417381A98
:10053000A141EEE730B40124E407634030BC55E745
:1005400030B40124E407614030BC4FE70000E0FF15
:10055000F0B51FB488B00B99099800244840099958
:10056000C00F490049080991C0070B990090490044
:1005700049080B9109990898A64608431CD00B9985
:100580000A98084318D0099801244000420D4800F9
:10059000410D099824050003000B204309900B9896
:1005A0000003000B20430B9050181C4940180022F8
:1005B00001901446104605E0002001460DB0F0BD44
:1005C000032801DA034600E003239C46C11A0AAE61
:1005D0000AE05F0008ADED5B4F00F75B7D4300274D
:1005E000AA187C41491C5B1E6145F2DD410004AB49
:1005F0005A522104120C0A43240C401C0828DFDB49
:10060000019802900099704601910090059B049A10
:100610000799069800F01BF9D0E700000DFCFFFFDA
:10062000F0B50C465C4085B0E40FE40703944C0041
:10063000002664085900944649080246029622435F
:1006400021D062460A431ED06200570D4A000E03B5
:100650002303550D012402462C492405781B1B0B4E
:10066000360B401823432643614600901C46501A1F
:10067000B44103D30098401C009002E09218009807
:100680005B41002803DA0020014605B0F0BD0020E0
:10069000012109050746864611E064461D46141BE4
:1006A000B54106D36546521BB341744607430C431C
:1006B000A646CD0740084908284392185B410546E5
:1006C0000D43EAD11046184313D0604619465040F6
:1006D0007140084306D06046101AB34106D2012289
:1006E000002306E000220123DB0702E00122D243BF
:1006F0005310009874460105381C6141029C039D0B
:100700000019694100F096F8BFE70000FD03000002
:100710000EB5C217C10F5040CA0740180021054B43
:100720000293019200910A460B4600F090F803B044
:1007300000BD00003304000070B5CD0F4A0009036E
:100740000123090B1B0519430B4BED070024520D28
:100750009A4201DA002070BD074B34339A4203DC21
:100760009A1A00F01DF802E00449511888402C4301
:10077000F1D0404270BD0000FF030000CDFBFFFF41
:1007800010B5202A04DB0146203A9140002010BD1C
:10079000914020239C1A0346E3401943904010BD2A
:1007A00010B5202A04DB0846203AD040002110BDB5
:1007B0000B46D340D0402024A21A9140084319464A
:1007C00010BD0000F7B5009C0F4600262578641C7C
:1007D000002D05D000F0A0F80068405DC007F5D1FD
:1007E0002B2D02D02D2D18D0641E39462046029A9A
:1007F00000F096F8002F04D03968A14201D1009989
:1008000039607105022400290BDA4042002803DD1B
:1008100000F07EFC0460A007FEBD012080020643BC
:10082000E3E70028F8DA00F073FC04600048FEBD3E
:10083000FFFFFF7F10B5002B08DA0024401C614148
:1008400092185B411A4301D14008400010BDF0B539
:100850001FB482B005460C0003D0084600F0D4FB5C
:1008600002E000F0D1FB20300246009021462846ED
:10087000FFF786FF049B059A04460F461843114371
:10088000084314D0184610431BD0009840210A1A80
:1008900018460599FFF784FF05460E46009A05990C
:1008A0000498FFF76DFF084305D0012004E02046BF
:1008B000394607B0F0BD0020C11705430E432C4355
:1008C000374300990E986305401A7905E40A00221F
:1008D0000C43FD0A0A3002D500200146E9E7010574
:1008E000101969410C9C0D9D00196941FFF7A2FF89
:1008F000DFE70000064C0125064E05E0E36807CC63
:100900002B430C3C98471034B442F7D3FFF7DCFB81
:100910004C5E00105C5E001000487047905C001058
:10092000F7B582B0029C00272078641C1546019719
:10093000302802D0002D15D015E020780127641C46
:10094000782804D0582802D0002D09D00BE0002DC3
:1009500001D0102D07D1002710252078641C02E05B
:10096000082500E00A250026009610E000990127DE
:1009700069430818020C294680B2714300908E1812
:100980003804864201D3012001902078641C294656
:1009900000F019F80028E9DA0398002805D0002FA4
:1009A00001D0641E00E0029C04600198002806D07B
:1009B00000F0AEFB02210160C81E05B0F0BD009939
:1009C00030040843F9E73A2800D2303820230246A1
:1009D0009A43412A01D310463738884201D3002078
:1009E000C0437047F8B52F4DEE682F4F2F4CF007DE
:1009F0003FD142E00269616800293ADDA3681A80AC
:100A00009B1CA360491E616003D06178002930D12E
:100A100013E001210022490200F09FFE24484168B2
:100A200049084900416000F0A5FE22498020086085
:100A3000E06800281DD080471BE02178022901D002
:100A4000002916D1B978491EB970B978002910D19A
:100A5000FF210022013100F080FE0022FF21D2435D
:100A60000131284600F079FE2078022814D00120B8
:100A7000B870E9682846C907BCD1700703D500F0F3
:100A800079FE0420E860B00705D50220E8602069FF
:100A9000002800D08047F8BDE078A178401A401CBB
:100AA000E6E7000000000150D85E0010206B001047
:100AB000945E001080E200E010B50A4C0821615EEF
:100AC0006289401AC1170023FFF720FB4905C00ABD
:100AD0000843217800B2002902D0E188401800B212
:100AE00010BD0000D85E001070B5254E244D0836AC
:100AF0002846FFF707FB040040D0A00701D5214896
:100B00008047200602D51F4824388047200712D589
:100B10001B481D494030FFF7F7FA19484430FFF7EA
:100B2000F1FA81041648890C1C300839FFF7ECFAF9
:100B3000144812388047600602D5124812308047A8
:100B4000E00601D511488047600705D504213046ED
:100B5000FFF7DAFA0E488047E00708D00121304657
:100B6000FFF7D2FA0A483230804702F0A7FDA0060C
:100B7000BED520213046FFF7C7FAB9E770BD0000A7
:100B80001000002FB1850001999A0000E772000162
:100B90002152010102480068002800D00047704738
:100BA000E85E001002480068002800D00047704747
:100BB000EC5E0010F8B505252D07AE6B064FAC00B6
:100BC000264206D0AC63A86B3968002901D02046C4
:100BD00088476410F4D1F8BD885E001010B5094C48
:100BE00000222273228001236380A380A3681970EE
:100BF000A1684A70226103F003FAA0680221615ED5
:100C0000405C10BD0C6B001070B5074B00241C73CA
:100C10001C8002255D809C809D68297099684A70BF
:100C20001C6103F02DFA70BD0C6B0010F0B5324A58
:100C300000211469600701D5042010612F4F30484E
:100C4000A30720D502231361D5680023C35E8668FD
:100C5000F6185B1C0380357083885B1E8380042339
:100C6000C35E012B01DDB9000CE08388012B03D0AA
:100C70008388002B03D005E00321C90402E005218D
:100C8000017339469160E3071BD001231361536858
:100C9000DB0702D0976004212CE0037B032B11D0EB
:100CA0000021415E0223C35E994219DA0021415EB0
:100CB00083685B18491C0180187801218904401859
:100CC0009060F0BD0423C35E012B02DD0121C90445
:100CD00004E08088012801D10321C9049160F0BD9E
:100CE000017B012904D0017B0229F8D1032101E015
:100CF000976005210173F0BD0080004000000200F4
:100D00000C6B0010024920200860024901200847AE
:100D100080E100E00752010170B53C4804F04AFC54
:100D20003B4804F047FC3B4804F044FC3A4804F0DC
:100D300041FC3A4D284604F07BFC394E304604F025
:100D400077FC384804F018FA08203749C4062060B8
:100D50006060084604F010FA201220604010206005
:100D60004010206040102060801020602F4900203B
:100D700004F0B2FA2E4804F059FA2D4804F08CFA27
:100D80002B4804F06FFA2A4804F002FB2849284651
:100D900004F014FB2649304604F010FB2548E2110C
:100DA00041699143002241618105A0688843A060A8
:100DB000601C2062204860622220A062E2621F481C
:100DC00020631F4860631F4803F056F802F0BEFB23
:100DD00000F05BFC0024E4432146002000F0CAFE42
:100DE0002146012000F0C6FE0B221149284604F0DE
:100DF00035FCE868022188430143E9602A46D0684F
:100E0000042188430143D16070BD000000200040F0
:100E100000300040004000400050004000700040A2
:100E200000A000400078004000A800400024F4002A
:100E300000127A008000004040010A00AA5AAAAAC3
:100E4000AAAAAA2A953E00100A4841680A4ACB0776
:100E500003D001234360C36813608B0701D50223CD
:100E60004360490701D5042141605068002800D043
:100E70000047704700200040B85E00100A484168F3
:100E8000CA0701D0012242608A0701D502224260CE
:100E90004A07064903D50422426000690860486891
:100EA000002800D00047704700300040C05E0010AE
:100EB0000A4841680A4ACB0703D001234360C3684C
:100EC00013608B0701D502234360490701D5042134
:100ED00041605068002800D0004770470040004043
:100EE000C85E00100A484168CA0701D0012242606A
:100EF0008A0701D5022242604A07064903D5042227
:100F00004260006908604868002800D000477047C8
:100F100000500040D05E0010164801698A0601D5D5
:100F2000202102E0CA0602D51021016170470A079C
:100F300001D50821F9E74A0701D50421F5E7C907DA
:100F4000F4D04168CAB20C490B69002BEEDDCB68C6
:100F50001A70CA68521CCA600A69521E0A61E5D139
:100F60003D23C2681B049A43C26048690028DDD053
:100F70000047000000700040DC6A001010B50C480B
:100F8000016989070AD50B4C6168002907DD2268D1
:100F90001378521C22600360491E616010BD002955
:100FA000FCD104F09BFBA0680028F7D0804710BD5F
:100FB00000700040DC6A001004490A699207FCD501
:100FC00008600A691206FCD47047000000700040F7
:100FD00000B504480068012802D004F0A7FC00BD59
:100FE000FEE70000B45E00100FB410B503A9044B77
:100FF000044A029800F0A0F810BC08BC04B01847DE
:1010000013390010F05E00102021020C01D01021D5
:101010001046020A01D010460839020901D01046D4
:10102000091F820801D01046891E420801D0881E7F
:101030007047081A704730B47446641E2578641CE3
:10104000AB4200D21D46635D5B00E31830BC18471D
:10105000FEB5064604206946088100250095707893
:10106000254C002803D02548608140101CE00A462A
:10107000234F02A91220B847002805D12149009822
:101080004118C72900D2A080A08860814008E08074
:101090006A4602A91320B847002806D100980146E5
:1010A000FF39C439632900D2E0803079012820D08B
:1010B0002570154E776830460F213215090200F071
:1010C00052FB657069464D710D7104208871C871BD
:1010D00009490E4B0122083101A800F0A9FC6078F3
:1010E0000028FCD00F213A460902304600F03BFBB5
:1010F000FEBD01202070DCE7D85E0010B80B0000B8
:10110000872100017BFCFFFF000001500D1A001039
:1011100000487047245F001002E008C8121F08C191
:10112000002AFAD170477047002001E001C1121F68
:10113000002AFBD170470000FFB591B00F4605466D
:10114000002606E025280AD0149A139990476D1CB2
:10115000761C28780028F5D1304615B0F0BD002463
:1011600000940121F34A029400E004436D1C2B78A3
:101170000846203B98401042F7D128782A280ED004
:10118000022128780246303A092A15D8009A0A2303
:101190005A43303A80180C436D1C0090F1E701CFA0
:1011A0000090002805DA01204003044300984042E3
:1011B0000090022004436D1C28782E2815D10420AD
:1011C000044368786D1C2A280AD101CF6D1C029057
:1011D0000BE002990A225143303940186D1C0290ED
:1011E0002878014630390929F3D928786C2810D09D
:1011F00006DC4C281AD068280ED06A2817D104E0E3
:10120000742813D07A2812D110E00120400504433D
:101210000CE00121090501E0032109050C4369786F
:10122000814203D10120000524186D1C6D1C287813
:1012300003906E281ED00CDC632831D004DC00281B
:101240008AD0582811D1B2E064287BD069280CD10B
:1012500078E073282DD004DC6F2870D0702804D17A
:10126000A7E075286CD078286BD0149A1399904712
:10127000761C62E06002400F022807D003280AD0E3
:10128000042838680AD006603F1D56E03868F11718
:1012900006604160F8E738680680F5E70670F3E716
:1012A0003878694608740020487404A80390012027
:1012B00003E0386803900020C0433F1D61070FD54D
:1012C000002101E00199491C029A0191914213DA2F
:1012D0008142F7DB019A0399895C0029F2D10BE086
:1012E000002101E00199491C01918142FADB019A38
:1012F0000399895C0029F5D101990098139A401A45
:1013000000902146149B00F03BF901998019461882
:1013100007E0039803990078491C0391149A1399E4
:1013200090470198401E0190401CF2D12146149B29
:10133000139A009800F014F986196D1C09E741E032
:1013400033E034E00A200021049005916002410F4F
:10135000022905D001CFC2179446032905D007E022
:10136000FF1DFF08FF0003CF06E000B2C21794463E
:10137000042902D140B2C1178C460022614694452F
:1013800006DA0A460021404291418C462D2102E0B6
:10139000210504D52B216A461176012103E0E107DE
:1013A00001D02021F7E7019154E00A200BE0102042
:1013B00009E0102004900021042004430820059136
:1013C000029003E008200021059104906002410F83
:1013D000022905D001CF00229446032906D006E059
:1013E000FF1DFF08FF0003CF8C4603E080B20429F5
:1013F00000D1C0B20021019121072BD5039970299A
:1014000006D0049A1021059B4A401A4305D00EE0ED
:1014100040216A461176012108E06146014306D069
:1014200030216A4611760399517602210191049A7E
:101430000821059B4A401A430CD16146014301D162
:10144000610707D530216A46117601210191029981
:10145000491E02910399582904D037A103910FA97D
:101460000F910DE039A1F9E76146059B049AFEF75B
:10147000A0FE039B8C469B5C0F9A521E0F9213702A
:1014800061460143F0D10F9807A9081A2030039054
:10149000600704D5012000048443029801E0012084
:1014A00002900399884201DD401A00E000204118B3
:1014B0000290019809180098401A0090E00306D4A1
:1014C0002146149B139A009800F05AF886190020C0
:1014D000049008E006A9085C149A139990470498B0
:1014E000401C761C049001998842F3DBE0030CD584
:1014F0002146149B139A009800F042F8861904E0E4
:10150000149A302013999047761C0299481E029035
:101510000029F5DC08E00F980F990078491C0F911D
:10152000149A13999047761C0399481E039000293A
:10153000F1DCFBE60928010030313233343536372F
:10154000383961626364656600000000303132330F
:1015500034353637383941424344454600000000AF
:10156000F8B5044600251E461746880404D405E055
:1015700039462020B0476D1C641EF9D52846F8BDB9
:10158000FFB50446002581B01E46C80301D53027AB
:1015900000E02027880404D505E038460399B047C9
:1015A0006D1C641EF9D5284605B0F0BD08B500F0E5
:1015B00095F87F2004226946000602F003FD4F22C1
:1015C00020211820FFF720FB5C222E211820FFF796
:1015D0001BFB502224211820FFF716FB4622222154
:1015E0001820FFF711FB082221211820FFF70CFB20
:1015F00008BD08B500F072F87F2004226946000695
:1016000002F0E0FC4F2220211820FFF7FDFA08BD70
:10161000F8B506460D467F2003226946000602F013
:10162000D1FC08480022521C8242FCDB002405E069
:1016300029211820FFF7D2FA3055641CAC42F7DBA1
:10164000F8BD000010270000F8B5074615460E4605
:101650007F201C4603226946000602F0B3FCE00727
:1016600004D029211820FFF7B9FA3870A00704D553
:101670002B211820FFF7B2FA3070600704D52D2116
:101680001820FFF7ABFA2870F8BD10B5002108202C
:1016900002F025FC0121082002F028FC082002F0BD
:1016A000E5FB0021082002F044FC10BD10B501F05C
:1016B0008FFE002807D00648007A002801D004F0E9
:1016C000DBF804488047012003490003884710BD28
:1016D000945E0010B15701015931000108B57F2017
:1016E00004226946000602F06DFC00222021182029
:1016F000FFF78AFA802224211820FFF785FA1022AA
:1017000025211820FFF780FA002220211820FFF75A
:101710007BFA002221211820FFF776FA00222221ED
:101720001820FFF771FA002223211820FFF76CFA26
:10173000002224211820FFF767FA00222521182013
:10174000FFF762FA00222E211820FFF75DFA00222F
:1017500030211820FFF758FA08BD03688B43114069
:1017600019430160704743688B431140194341603E
:1017700070470000034800E00169C168C907FBD158
:101780007047000000000150074B01211A68490210
:101790008A43014011431960002804D1034841687D
:1017A000490849004160704700000150945E0010F4
:1017B0001CB5022300220321184600F0A5F80020E2
:1017C000C04301F03DFD1E4C002020606946487179
:1017D000087107208871C8711A4B012201A800F016
:1017E00027F920680028FCD069460020085EFFF732
:1017F00063F9800000B2694608801349884201DC21
:1018000000240EE01149884201DB642409E00E49FE
:101810004942401864214843AF218900FEF75FFD2B
:10182000C4B2002001F00CFD0020FFF7ADFF00F076
:10183000F3F8012000058102086020461CBD00006D
:10184000605E0010091B0010FC080000B80B0000CF
:101850001CB5022300220321184600F055F8002091
:10186000C04303F07DFE002202230321104600F056
:101870004BF81E4C00202060694648700870062016
:101880008870C8701A4B012201A9684600F0D0F890
:1018900020680028FCD069460420085E1549002213
:1018A0008A5E801AFEF734FF134A144BFEF7B8FE27
:1018B0000022134BFEF79AFD0022124BFEF748FE62
:1018C000FEF73AFF00B20A21FEF709FD04460020A8
:1018D00003F046FE0020FFF757FF00F09DF80120BF
:1018E00000058102086060B21CBD0000605E00104F
:1018F000091B0010E45E00106666666666660E40B0
:101900000000394000002440FFB50F46394983B03C
:101910000020087048608860C860012000058402CB
:101920001D4616466060354A33485169814351610E
:101930001E210020BFF36F8F401C8842FAD3102273
:101940001146204603F02EFC00224021204603F0E1
:1019500029FC0022D2434021204603F023FC6846A4
:1019600007704670857003980223042501263A46C5
:10197000002807D00821012808D0022809D0032810
:1019800011D10BE06846C370037105E06846C3706F
:1019900007E06846C3700671457104E06846C3708D
:1019A0000323037141713F21204603F0FBFB68468E
:1019B0004078144B020568464079114900040243FF
:1019C0006846C078800202436846007900020243FC
:1019D00068468078800102430D2000070243802082
:1019E00018600948FFF7BFFE6846FFF731FB07B0F4
:1019F000F0BD0000206B00100108000080000040D6
:101A0000C00F3CD000E100E000000150014901207E
:101A100048707047D85E0010044A034851698143FA
:101A2000084350617047000001080000800000403A
:101A3000F8B51F4C05782570477867708678A670D2
:101A4000C078E070E3606260A1601A49022D0ED098
:101A500001228A7032060007024338030243174806
:101A600015490243022D05D0002D03D007E0821B4B
:101A7000521CEEE70120C0030243022D01D0032DCA
:101A800002D10120000402430D4D2846FFF765FEF8
:101A90006078002805D1421EFF2101312846FFF75A
:101AA0005CFE0848012142680A434260F8BD00001C
:101AB000206B0010D85E0010FEF307FF2602060020
:101AC00000000150945E001038B50B490024085FF7
:101AD000FEF7F2FF084980310880FEF7EDFF01466E
:101AE00006A0FFF781FA074B0122034968460094DC
:101AF000FFF79EFF38BD0000E268001025640D0A64
:101B000000000000C91A0010014901200860704758
:101B1000605E001070B5104C0546207800282846FD
:101B20000AD003F09DFAFF2809D00CA0FFF75CFA59
:101B3000284603F095FA70BD01F06AFD70BD0648B5
:101B4000FEF72AFC25540448FEF726FC0019002164
:101B50004170084670BD0000D86800104974656D7A
:101B600020616C726561647920696E206C697374A0
:101B70000D0A0000032808D801220930034B8240D7
:101B8000986B90430A4002439A637047800000407C
:101B900010B50D480123DB02016ADA0499430162A2
:101BA000016A8B099B011021194301629168830529
:101BB00099439160426901158A4311434161034988
:101BC00001208847002010BD800000408F57010190
:101BD00010B5074A0146D07D002807D1104660386D
:101BE000806F0123D3753422FEF7B2FB012010BDB4
:101BF000446A00103EB51D49C84206D101200003C9
:101C000002F055F9002808D005E0FF22733218A130
:101C10001CA001F02DFA00203EBD1B4D1520A84749
:101C20001A4C022808D01520A8470328F3D100F049
:101C300043F902202070EEE715480068007800287C
:101C4000E9D100F0A5FC00F053FE0546022000F0AB
:101C5000DFFD024630210F4B6420019102901946AE
:101C600000951F39222000F0E3F8E2E7F9ABFFFF0F
:101C70002E2E5C7372635C7573725F646573696743
:101C80006E2E630030000000892D0001945E00106C
:101C9000845E0010056A001002490A8882430A80A7
:101CA00070470000E469001010B503490720096877
:101CB000487000F0F5FC10BD845E001070B50B4D4F
:101CC0000C462A68012805D01078012801D100208F
:101CD000107070BD5480012200231146204600F090
:101CE0006BFD29680120087070BD0000845E001043
:101CF00070B50F4D88B0287A002803D000202872D4
:101D000003F0B0FD1C216846FFF782FC00246E46FC
:101D1000305701F09DFA641CE4B21C2CF8D301206A
:101D20000449000388470220287008B070BD0000F5
:101D3000945E00107331000110B50848017A002943
:101D400003D00021017203F08DFD0222054B152105
:101D50000348984704490120884710BD945E00104D
:101D6000075400003B2F000173310001F1B50C4E08
:101D7000002435460B4F60350CE02046342250439A
:101D8000B16FC01C09180098B847002801D0E0B214
:101D9000F8BD641CE87DA042EFDCFF20F8BD000028
:101DA000E4690010E52A00013EB50D491520884779
:101DB000032813D100F0ECFB00F09AFD044602204A
:101DC00000F026FD19218901064B0191029102467E
:101DD000194600941F39222000F02AF800203EBD49
:101DE000892D0001056A001070B50C46054609787A
:101DF00006A0FFF7F9F802210C4A1520904721466A
:101E0000284601F0CDF8002070BD00004164762026
:101E100073746F70207769746820726573756C7461
:101E20003A20307825782E0D0A000000612D00013F
:101E3000FFB51E4681B005465C2315221D4C0C21C2
:101E40001B480A9FA04704460580A90600200029D8
:101E500001DAA07109E0690601D5012104E0E90772
:101E600001D0032100E00221A1710B9961800C993E
:101E7000A180E0710721E17320740398A074029897
:101E8000002805D0014620461330039AFEF760FA79
:101E900032200755002E05D020463A4631463330D1
:101EA000FEF756FA034920462E31884705B0F0BDAB
:101EB000083000005D33000110B501231522064CE7
:101EC0000C210448A0470021017003492E318847A6
:101ED00010BD00000C3000005D33000170B50C46F1
:101EE0000546CB788A7909881848FFF77DF8E078AD
:101EF00017490300FFF79FF80705161D1D161D1D46
:101F00001600A079012814D1A0783823584340182E
:101F10006279A0300275A07858434018B430FFF7BA
:101F200057FE06E0A0783823584300224018A0301E
:101F3000027507486030817D490849008175214656
:101F4000284601F02DF8002070BD0000DC5C001078
:101F5000E4690010FEB5144E002730780C460128C5
:101F600001D002281DD001250F4801222030817D9B
:101F700011438175A07900F0D7FA717800912B4652
:101F80000022394600F014F8A078227861786B4678
:101F900007C3E378227961790448FFF725F8002028
:101FA000FEBD0525E0E70000246A0010945C0010E7
:101FB000F8B51C460D4606460A2315220A4F0C2189
:101FC0000848B84706808570002101714471069960
:101FD000C170102181710721C171017202492E3136
:101FE0008847F8BD1B3000005D33000170B5054621
:101FF00008780C46002808D007A0FEF7F5FF214618
:10200000284600F0CDFF002070BDE388A2886188DB
:102010000848FEF7E9FFF2E75570646174652070C7
:102020006172616D65746572206661696C65642EAC
:102030000D0A0000205D001010B586B00C4600F0BF
:10204000AFFF6178002905D011A0FEF7CDFF002079
:1020500006B010BD608804A900F02EFA6846027C24
:10206000417C2378807C03936B4607C36846C37C1E
:10207000027D417D0EA0FEF7B7FF00226088114669
:1020800000F000FC61880020FFF718FEDFE7000089
:10209000446973636F6E6E656374207374617475E5
:1020A00073206572726F7228252378292E0D0A001D
:1020B000446973636F6E6E6563742077697468201A
:1020C0002530325825303258253032582530325894
:1020D000253032582530325820726561736F6E207A
:1020E000697320307825782E0D0A00007FB50C46E4
:1020F00005460B784A79E07989796E460FC6237ACE
:10210000627AA17A12A0FEF76FFF20491520884756
:10211000032806D0002000F0E5FB2078002807D037
:102120000FE01A4A02211520283A90470120F2E7D1
:1021300060880122214600F0A5FB61880120FFF79D
:10214000BDFD2146284600F02BFF002004B070BDE5
:10215000436F6E6E656374696F6E20776974682073
:1021600025303258253032582530325825303258F3
:10217000253032582530325820726573756C7420C2
:10218000697320307825782E0D0A0000892D000112
:1021900070B50E4605460A231522094C0C21074846
:1021A000A0470446058008223146801CFEF7D0F87F
:1021B000034920462E31884770BD00000F300000D3
:1021C0005D33000170B505460C460AA0FEF70CFF12
:1021D0002078002802D16088002808D009A0FEF7E6
:1021E00003FF2146284600F0DBFE002070BD08A05A
:1021F000F5E70000536C6176652075706461746565
:10220000200000006661696C65642E0D0A00000004
:10221000737563636573732E0D0A00001522034BFB
:102220000C2101481847000015300000D733000189
:1022300070B50C4605460A4915208847012809D182
:102240002078002802D007A0FEF7CEFEFFF72CFD75
:1022500000F0EEF92146284600F0A2FE002070BDF5
:10226000892D0001514E20424C45206465766963FA
:1022700065207365747570206661696C65642E0DE8
:102280000A0000001522034B0C21014818470000EA
:1022900013300000D733000170B50546064A0C46DE
:1022A00015209047012801D1FFF7B8FF21462846A5
:1022B00000F076FE002070BD892D000170B5054646
:1022C0000C46012000F0BEF82146284600F068FECA
:1022D000002070BD10B500F063FE002010BD0000AE
:1022E00010B55C231522064C0C210448A047E113CD
:1022F000018003492E31884710BD000008300000DE
:102300005D33000170B505460C4604A0FEF76CFE77
:102310002146284600F044FE002070BD536574201D
:10232000646576696365206E616D6520636F6D70AD
:102330006C6574650D0A000010B5144600F030FE9F
:102340000E49204688470D4C283C012804D002281D
:1023500007D003280FD10BE002211520A04708A0C9
:1023600007E00CA0FEF740FE03211520A04702E085
:102370000EA0FEF739FE002010BD0000892D0001DF
:10238000514E20424C452069732072656164792E5C
:102390000D0A00004164766572746973696E672086
:1023A00073746172742E0D0A00000000416476653A
:1023B000727473696E6720706172616D65746572A5
:1023C00020757064617465642E0D0A0010B508787C
:1023D000002804D003A0FEF707FE002010BD07A0D0
:1023E000F9E70000536574207072697661637920A3
:1023F0006661696C65642E0D0A00000053657420E7
:102400007072697661637920737563636573732E87
:102410000D0A000010B50878002802D102A0FEF7CE
:10242000E3FD002010BD00005365742072616E64EE
:102430006F6D206164647220636F6D706C6574658C
:102440002E0D0A0070B5044602231522064D0C21FC
:102450000448A84701210170034944702E31884780
:1024600070BD0000143000005D33000170B50546FA
:10247000064A0C4615209047012801D1FFF702FFBC
:102480002146284600F08CFD002070BD892D0001FA
:1024900070B50C4602231522064D0B210448A847AF
:1024A0002188018003492E318847002070BD00003B
:1024B0002D2C00005D33000170B50B460246FF2055
:1024C0000C490024382565436D18C0352D8D954283
:1024D0000BD1002B07D03820604341180622184644
:1024E000B731FDF735FF204670BD641C2406240E6D
:1024F000E8D070BDE46900100148C07D704700005D
:10250000446A0010074A3423926F5843135C002B2F
:1025100005D0401C105C084201D00120704700200B
:1025200070470000E469001000B5024600F010F8A2
:10253000002806D03820424303481018C030008DD0
:1025400000BD024800BD0000E4690010FFFF00006C
:102550003821484304494018E030807A002801D0EF
:102560000020704701207047E469001010B5FFF7A4
:10257000FDFBFF2808D005493422896F5043085CD1
:10258000012802D0022800D0002010BDE46900100C
:102590000120C003704700000148007C7047000024
:1025A000846A0010F8B510240E4625460AE0294634
:1025B000FDF77FFE0F462946641EFDF77AFE0901EE
:1025C000394331550028F2D1F8BD000070B5F8212B
:1025D0001448FDF7D6FE0020124C134B012238217F
:1025E00041430919EA256A54C031401C00060B8595
:1025F000000EF4D0022000F00BF9002000F078F972
:1026000008487C30A06700F0B3F9FFF7C1FF2080D5
:1026100002F00CFF0121054A1520904700F026FD2D
:1026200070BD0000E4690010FFFF0000612D000193
:102630001FB5102204496846FDF78AFE694602204C
:1026400000F094FC1FBD00002F6A001000207047AE
:1026500070B5124C0A882368588890420ED1888839
:102660000122012858680BD08D781446AC40A04355
:102670005860897898688A4090439860002070BDBF
:1026800089788A401043586001F058FB21684A78E5
:102690009042F3D148688860F0E70000845E001043
:1026A00070B5044602231522054D14210348A8479E
:1026B000034944702E31884770BD00000750000068
:1026C0005D33000110B50878002803D10120C00354
:1026D000FFF7E2FA002010BD10B50C4689780029FA
:1026E00007D0E27805A0FEF77FFCA078E11C02F09D
:1026F00005FC06A0FEF778FC002010BD6C656E3D61
:1027000025642C2049253032580000000D0A0000B5
:10271000FFB51546531D0E46074615220A4C81B0DB
:1027200014210848A04707808670C57004462A46D1
:10273000001D0499FDF70CFE034920462E31884701
:1027400005B0F0BD035000005D33000110B50C482A
:102750000C880268C8785388A34201D1002805D0AC
:10276000014608A0FEF740FC002010BD8B78012137
:10277000906899400843906001F0E0FAF4E70000A7
:10278000845E0010515050532073656E6420657252
:10279000726F722025642E0D0A000000054800218A
:1027A0000068C94341800021017041608160084692
:1027B00070470000845E0010FFB514460D460646C3
:1027C000082315221421074F81B08802B8470680DC
:1027D0008570C4700499416002492E31884705B064
:1027E000F0BD00005D33000110B502A0FEF7FCFB58
:1027F000002010BD51505053204572726F722069F5
:102800006E6469636174696F6E2E0D0A00000000CA
:1028100038B5164C0221A1700121E170810701D564
:10282000062004E0400701D5052000E004202071C7
:102830001A2069460880E21D0D4B022098470028A7
:1028400007D00F20694608800AA1E01DFDF7B8FDFA
:1028500003E069460888401E088068460088411CDD
:1028600061710821401DA171C0B238BDE46900103A
:10287000872100015765617220576172652053708E
:1028800061726B0070B5164D2C46A034002A10D032
:102890002B460022E035AA72E822D0520879A075B2
:1028A0001846B7300622491DFDF752FDA07C401C9A
:1028B00013E00021FFF700FEFF280FD0382250431D
:1028C00001214019EA2211548A1EE8210A523421BA
:1028D000B430FDF756FDA07C401EA07470BD000012
:1028E000E46900100149087470470000846A001010
:1028F000F8B50022052412260C25062316490028C7
:102900000CD0000413D51120487013488B7010228E
:1029100012A1C01CFDF71CFD1220F8BD4C708E707A
:10292000CB700A71802048718D710620F8BDCA7085
:102930001820087101274F7188714C70032088702E
:1029400005488021801D44708670C37002714171FA
:1029500085710C20F8BD0000046A00100000FEE93B
:1029600000001000800000805F9B34FB000000002E
:10297000F0B587B00124684604813A4D384A02A96F
:102980000B20A847364EF61E002802D00020F0701B
:1029900002E0F07800280FD1314A0620694608810C
:1029A000521C174602A90C20A847002804D0062272
:1029B0002DA13846FDF7CCFC294A1027684607812F
:1029C000083202A90D200092A847002804D0102246
:1029D00027A10098FDF7BCFC214A68460781183200
:1029E000174602A90F20A847002804D0102225A1CD
:1029F0003846FDF7ADFC01206946194A088134329A
:102A000002A93220A847164F1D37002801D0002008
:102A1000F875342069460881002410E010484338D6
:102A2000816F342060430A1820463330C0B202A9B7
:102A3000A847002801D0FC7504E0641CE4B2F87DCE
:102A4000A042EBD80648082213A12830FDF780FCED
:102A50001448B086012030700320707007B0F0BDBC
:102A6000276A0010872100013131313131310000F6
:102A7000015FE8B456078E2218A67CE1E4BA99A556
:102A800000000000BF01FB9D4EF3BC36D874F53941
:102A90004138684C0000000000112233445566772D
:102AA0000000000021430000F8B500270E780D4615
:102AB0003C46FF2E07D0A81CFFF758FD040003D0AA
:102AC0000820044300E00026A81C00906B782246F2
:102AD0003946304600F00CF800976A7823463146B4
:102AE0000248FEF781FA0020F8BD00006C5D00107E
:102AF000FFB51D4616460F460A2315220B4C81B022
:102B000007210948A0470446019820706770A67005
:102B1000E5700622201D0A99FDF71AFC034920469C
:102B20002E31884705B0F0BD1B1C00005D3300014D
:102B3000F8B50E46097821A0FEF756FAFFF7DCFC3F
:102B4000274D074630782C46A034FF2815D1607CED
:102B500034225043A96F31380818224906224919F6
:102B6000B731FDF7F5FB002024E00221FFF7CAFC96
:102B7000002805D1607C401C6074607CB842F4D3AE
:102B8000607CB84208D100206074002301213078B5
:102B90001A4600F029F80EE0342358430346AA6F82
:102BA0000A33D318C01C12180021307800F01CF82A
:102BB000607C401C60740020F8BD000049524B202E
:102BC0007265717565737420696E64696361746997
:102BD0006F6E206964782069732025642E0D0A00C9
:102BE000E4690010C8370000FFB515460E460746D9
:102BF000182315220E4C81B007210C48A0470770FE
:102C000004464670002D0AD006222946A01CFDF776
:102C10009FFB2046102208300499FDF799FB0449D8
:102C200020462E31884705B0F0BD00000A1C000088
:102C30005D33000170B50C460A7849781FA0FEF795
:102C4000D3F960782646254D0C36012802D002289B
:102C500032D11FE02078382148434019A030417D0F
:102C60000122114341752078382250434019618870
:102C7000C030C1832078211D504340190822E03024
:102C8000FDF766FB20783821484340191022314671
:102C9000CE300FE02078382148434019A030417DE4
:102CA00002221143417520783821484340191022EF
:102CB0003146BE30FDF74CFB002070BD4B657920DE
:102CC000256420696E6469636174696F6E2069644C
:102CD000782069732025642E0D0A0000E469001035
:102CE00070B50D464A7888B0097828A0FEF77CF9BF
:102CF00028783821324E48438019B730FFF736F82C
:102D0000044630466030807DC00717D1FFF744FC91
:102D1000012813D0FF2C2DD034214C43B06F214615
:102D20001A31224641182C32821801910092214614
:102D30002A31435A025D2878002122E020491022DE
:102D40005B3102A8FDF704FB1D4908226B3106A880
:102D5000FDF7FEFA02A906A801910090FF2C04D00D
:102D60003421B06F4C43025D00E001221448403032
:102D7000838EE0E7002000900190002328781A4617
:102D80001F2100F01FF8002008B070BD4C544B20EC
:102D90007265717565737420696E646963617469C5
:102DA0006F6E206964782069732025642C2061751A
:102DB00074685F7265712069732025642E0D0A00A6
:102DC000E4690010FFB51E46174681B01E23152288
:102DD000104C07210E480A9DA04704460198207018
:102DE00002986070A770A680002D0AD0082229469C
:102DF000A01DFDF7ADFA204610220E300B99FDF70D
:102E0000A7FA044920462E31884705B0F0BD0000DE
:102E1000081C00005D3300017CB50C4605460979AD
:102E2000E07800900191A378627821780448FEF759
:102E3000DBF82146284600F0B3F800207CBD0000F6
:102E4000C45D001070B50C460546097806A0FEF773
:102E5000CBF80C4A2146907D4008400090752846EA
:102E600000F09EF8002070BD54696D65206F757488
:102E7000206576656E742069647820697320256406
:102E80002E0D0A00446A00107FB50C46097811A087
:102E9000FEF7AAF8A078184D012816D0281FC07890
:102EA00001280FD000200090019002900390284646
:102EB000FDF78FFA6946FFF775FB20786A46002117
:102EC00000F024F8002004B070BD29460BA0FEF7E6
:102ED0008BF8E7E7544B2072657175657374206950
:102EE0006E6469636174696F6E20696478206973C8
:102EF0002025642E0D0A0000286A0010504153530B
:102F00004B45593A2025730D0A000000F8B51546C7
:102F10000E460746122315220A4C07210848A047EF
:102F2000077004464670002D04D010222946A01CCC
:102F3000FDF70EFA034920462E318847F8BD000000
:102F4000061C00005D33000110B50C460649152033
:102F50008847012806D16078022801D0042801D1D1
:102F6000FFF7BEF9002010BD892D000170B50E4697
:102F7000054611231522094C06210748A04704469F
:102F8000057010223146401CFDF7E2F90349204646
:102F90002E31884770BD0000021800005D3300012B
:102FA000FEB50C4629492A4E2A4D88422FD01ADCFC
:102FB0002949401818D0072825D0092813D1FFF730
:102FC000E7FAFFF795FC04460220FFF721FC0246D2
:102FD0003021224B642001910290194600941F3940
:102FE0002220FEF725FFFEBD1D4C1520A04702281C
:102FF00002D01520A047FEBD164B1521194A3046B8
:10300000743B9847FEBD15213046A847FEBD207889
:103010000028FBD1FFF7C0FA0128F7D1152130466F
:10302000A847082168460180102141800021818045
:10303000FF212D31C18060886946FFF7A9F801F0B2
:1030400087FF094902200870FEBD000035300000EE
:1030500003540000AF2F0001D5CFFFFF056A001019
:10306000892D0001B80B0000945E0010704700002D
:1030700013460A46014603A0FDF7B6FF012080F380
:103080001088FEE74153534552545F45525228255C
:1030900073292C20696E202573206174206C696E61
:1030A000652025640D0A000070B50C4689781B293F
:1030B00003D021460B4CA04770BD0B4920888847A0
:1030C00000280CD001890423094D0B220748A8478A
:1030D00021880180E178817005492E3188470020E0
:1030E00070BD00005F1B01012DAF00012B2C000003
:1030F0005D330001FFB5002591B016462F460195BE
:10310000002904D008220CA8FDF722F903E00020D2
:10311000C0430C900D9000241BE022460D990C98A2
:10312000FDF7F1F8C043C00711D1204614214843F0
:103130001B99095C102903D10199491CC9B201915D
:103140001B996D1C40184089EDB2C01987B2641CF0
:10315000E4B2B442E1D3364C00972A46019B1A9957
:103160001198A04705460024324F55E022460D999C
:103170000C98FDF7C8F8C043C0074BD12046142176
:1031800048431B990F90411808910A8907AB009298
:1031900001931B9A4B68125C1198274D498900884E
:1031A000A847050036D108988189002932D01B9A9A
:1031B0000F98105C022836D108984068427803784E
:1031C00010021E4A184390422DD108980A46006901
:1031D000014602A8FDF7BCF86846407AFF2809D0EE
:1031E0001499002906D011996A460978928B521ACF
:1031F00014990A546A46908B401C80B29083117FC8
:103200005172517F91720899431E8989938302AA52
:10321000B8470546641CE4B2B44201D2002DA5D0E3
:10322000284615B0F0BD089802696846808BEFE724
:1032300061AE0001B5B1000175AF000103280000C7
:10324000012110B50246C904C80201F0B2FF10BD49
:10325000F8B5564C0026217822461032032914D2A4
:103260005054491C2170E68000201156E388401C10
:10327000C918C0B2E1800428F7D30620205EC11728
:10328000890F08188010E080F8BD002153185B7882
:103290005354491CC9B20329F8D3D0700020014609
:1032A0005356491C1818C9B200B20429F8D3C117E3
:1032B000890F081880103D4B05B267785888009038
:1032C000401C81B298880622401C9A5E80B23B0066
:1032D000FDF7B1FE07050E1A26313B666A00002A8B
:1032E00062DB002D60DA012060706180A6805BE007
:1032F0006180A080C820C54255DB681D01DA02202C
:103300001EE0002D4FDA4FE06180A080002A03DC30
:10331000012D01DB032013E0C820C54243DB43E05D
:103320006180A080C82D3EDC052D01DD042007E072
:10333000002D38DD38E06180A080052D02DA0520FF
:10334000607031E0C82D2EDC2EE0A080072809D95E
:10335000002A05DB002D03DA01206070A68003E05F
:10336000667001E006206070A068401CA0600098B4
:1033700081080FA0FDF738FE0C4861881430282919
:1033800001D9407A07E00A460A3A1E2A02D2890881
:10339000405C00E00078E1684018E060668003E08F
:1033A000A080072800D96670E580F8BD645E001033
:1033B00054696D652073696E6365206C6173742058
:1033C000737465703A5D5B273A2025640D0A00002E
:1033D00000B500F011F807490A78104208D0012022
:1033E0008007006C400503D400200870012000BD58
:1033F000002000BDF45E001001208007006C8005F5
:1034000001D501207047002070470000FFB585B04E
:1034100004460EA846C83048CB1C9B089B0001629E
:10342000591A511A8908890041622C4880472C4852
:103430001822C76885682B492B48FCF789FF2A4862
:1034400028493038476405642022A0391030FCF741
:103450007FFF254925482039C860224A2248183272
:10346000234B01AD0DC5032168460182012545822C
:10347000049800901F4F0A200199B84748221E491E
:103480001E48FCF765FF1D491D48C8611D48019095
:103490000222684682811849C581154B483103983C
:1034A0009B1D00900420019AB84701F0DBFF1649EC
:1034B0001648FCF729FE164801680902090A01604E
:1034C000144930468847144806AD84600ECD204626
:1034D00000F06CF809B0F0BD40F30010A5590101EF
:1034E000D85A0010CC700101646B001065410010C7
:1034F00094CE0010FD2C0001247B01017C6C001097
:10350000D1390010045F00101A035D3A8000002FCB
:1035100000E400E08F570101C0F4001010B50A4C20
:10352000012803D1A068006800280AD000F0F6F94D
:10353000022805D141070A6C9205FCD501212170B2
:1035400010BD012010BD0000F45E001010B5012177
:103550000C03204600F0EDFC204600F087FC012122
:103560004C03204600F0E5FC204600F07FFC10BD37
:1035700003688B43114019430160704743688B43D4
:10358000114019434160704710B50348FCF7BAFD7C
:103590000421084010BD00001400002F2E214843D4
:1035A00001494018704700005C49002F30B4124DAB
:1035B00000242C736C73114C0028A06019D00E4CA1
:1035C000203CE263A1630C49012220310B600C49CD
:1035D0000128496806D06A730A486063C8600A48CF
:1035E00030BC00472A7309486063C86007481E382A
:1035F000F6E730BC7047000020F30010C0F4001064
:10360000F45E001075480001C73E0001413400011E
:1036100010B50446014604A0FDF7E6FC0C48002165
:1036200004704170084610BD6372656174696E670D
:10363000206C697374207769746820686561646EB2
:103640006F6465206173205B25645D0D0A000000D6
:10365000D868001070B504460B488470012100251D
:103660004904ED434E032A46304601F0BCFDF110FB
:10367000002C03D0054A1069884310612A46304661
:1036800001F0C6FD70BD0000F45E00108000004037
:1036900010B5084C2079002801D0002010BD064844
:1036A000006B002802D080470028F7D0012020714D
:1036B00010BD0000C0F4001040F3001010B5044825
:1036C000406B002800D0804702490020087110BDDF
:1036D00040F30010C0F40010002102E0BFF36F8F30
:1036E000491C8142FAD3704700B501F0B9FCFF28AC
:1036F0000BD0064900220A5402E00A54401CC0B212
:103700000A185278002AF8D1002000BDD8680010AD
:1037100010B50020FEF738F8FEF77EF9012000050D
:103720008102086010BD0000034BC318186888436D
:10373000114001431960704700B00040034BC318AB
:1037400018688843114001431960704700B0004079
:1037500008B500231A4603210220FEF7D5F8002001
:103760000090034B012203496846FEF761F908BD4A
:10377000C91A0010E2680010F8B5564D1746AC059E
:103780000E4600283DD0544901284DD002284AD188
:10379000884722466142104601F012FD4F48012140
:1037A0000172C0684F49C2434D480243204601F0B0
:1037B00021FD28690421084328614A1F522120461F
:1037C00001F02DFDC725AD0400222946204601F059
:1037D00003FD4549202008604448066030BF434847
:1037E00080300660412292042946204601F0F4FC14
:1037F00000225021204601F012FD002F65D0B8476D
:1038000063E0286904210843286100224221204600
:1038100001F005FD35480168344B421780331A60CA
:10382000066030BF0160F8BD884722460321890742
:10383000104601F0C5FC2948C16801200143024639
:10384000204601F0D7FC28690421084328614A1F5B
:103850005221204601F0E3FCC725AD040022294691
:10386000204601F0B9FC2049202008601F4806606E
:1038700030BF1E488030066041229204294620460F
:1038800001F0AAFC00225021204601F0C8FC002FC4
:1038900008D0B84706E0FFF777FE002802D00120E5
:1038A00001F010FC206C8003F5D50321002289076C
:1038B000204601F085FC01F031FCF8BDFFF764FE05
:1038C000002802D0012001F0FDFB206C8003F5D51B
:1038D000EBE7000000ED00E043570101945E0010AB
:1038E00001FCFFFFFFFCFFF780E200E000E100E0E9
:1038F00010B5064A042190690C0788430143916181
:103900001420FFF7E9FE2012606010BD8000004027
:10391000704710B5C0B2FDF74FFB10BDF8B5214E92
:10392000214CF06A0090A06800250068002836D17C
:10393000E0680125C179002931D0818800292ED184
:10394000007A002801D1B06A0090E068174A8179B6
:1039500068469047002822D0E068154F81797A693F
:103960006846904700281AD070688047002816D013
:103970001048FCF7C7FBE1680860009801F05EFBA7
:10398000E168FA68097A90470A4C022524342046F7
:10399000FCF7B8FB042101432046FCF7B5FB2846A1
:1039A000F8BD000040F30010F45E00107930000113
:1039B00000DC00100C00002F10B54888034949882E
:1039C000884201D101F004FA002010BDD46E00102D
:1039D000FFB51F4981B00420884701280ED11C4A39
:1039E00000210420283A90471B4C04211948A04785
:1039F0001A49002048740C211948A047194E002488
:103A000020465421484307468519288A002815D0A6
:103A1000687F022812D0032810D0A88A08280DD267
:103A20000002401C0A4980B28847002806D128823B
:103A30000C480E4A2C3839180B489047641C112C3E
:103A4000DEDB02980A4900788847002005B0F0BD07
:103A5000892D000104100000AF2F0001E0DE0010EE
:103A60002230000080D6001024D50010952B0001D4
:103A70000F29010170B50D4D0E4604230D4C298808
:103A800014220B48A0470446688820803088A98803
:103A9000401A401F0321FCF722FCA070B0780549B2
:103AA000E07020462E318847002070BDD46E001093
:103AB000045000005D330001FFB50C4688880D49B5
:103AC00081B01D46164688472B4607460A4D3246AA
:103AD00021460198A847FF2F08D02078062801D05A
:103AE0000A2803D10121054A0B209047002005B088
:103AF000F0BD00007DD00001DF020101612D000159
:103B0000FFB50C460888364981B088470646FF282D
:103B100015D0344904988882324A74207043203288
:103B2000217A801801832046217A0A302E4D2F4FAA
:103B300000900C290BD00E292AD0112928D021461B
:103B40002B4C049B039A0198A04705B0F0BD3102AD
:103B500020230B2227480931A847054620882880C2
:103B6000207AA877608868803046B847C11EE08810
:103B7000814202DC3046B847C01E82B2AA80A81D2E
:103B80000099FCF7E5FB184928462E31884724E0C8
:103B90001848310220230B22801C0931A847054612
:103BA00020882880207AA877608868803046B847C7
:103BB000C11EE088814202DC3046B847C01E82B296
:103BC000AA80A81D0099FCF7C3FB074928462E319F
:103BD00088470121084A0B2090470020B5E70000E4
:103BE0007DD00001E0DE00105D3300011BAB000161
:103BF0006D04010108240000612D0001F0B5414869
:103C00000C4609884088002685B081426ED16188C3
:103C10003C4D0091AF88C81B801F3A1DC0B2914235
:103C200005D90321FCF745FB019000291ED000981F
:103C3000BF1CB84259D1A088142854D8C01C298868
:103C400083B2324D14223048A84705462D482146FC
:103C5000408828802079A870A2880A31E81CFCF7E7
:103C600077FB284629492E3188473FE0608969461D
:103C70000880244A01219268002803D0012803D03B
:103C8000802633E0002804D0019881401143A960C8
:103C900003E0019881408A43AA601D4B608802AA14
:103CA00003A9984702984178027808026946098872
:103CB000104388421AD0164B022160886A46383B6E
:103CC0009847607A002811D029880F4806231422CB
:103CD0000E4D401EA847014601988870684600882E
:103CE00088800846BEE7812600E08226207A0028E8
:103CF00005D00448074B6188408832469847002029
:103D000005B0F0BDD46E0010065000005D33000118
:103D1000EDB100014FCB00010148C06870470000C1
:103D2000645E00100148806870470000645E001007
:103D300001494000085E704762690010002103E0FD
:103D4000C20700D0491C40080028F9D10846704736
:103D5000FEB50D461446002601210300FDF76BF960
:103D60000E7108080A0F133571714D717141507150
:103D7000A95402E0FDF71CFD03E0012665E0FDF714
:103D800067FD2855F9E7062001F06AF9FF2806D0FB
:103D9000072302AA01A96846FDF756FC09E0FDF7D2
:103DA00028FC072302AA01A96846FDF74DFCFDF790
:103DB00095FC6846007828556846291900794870AE
:103DC0006846007A887003263FE001216846FDF7C7
:103DD0001FFC694600200856FFF73AFAFFF7A2FFDA
:103DE00001E0FFF799FF010E2955020C29194A70CD
:103DF000020A8A70C870042627E015480068F2E7B6
:103E0000002069460870C0B2FFF792FF69460022A1
:103E10008A56001251000919685469460878FFF75C
:103E200087FF694600228A565100091949194870CE
:103E300069460878401C40B208700128E3DB02267E
:103E400003E0014603A0FDF7CFF83046FEBD0000B9
:103E50005C5E0010556E7265636F676E697A6564AB
:103E60002049443A2025780D0A0000000521090761
:103E70000862086A70470000044908600120400594
:103E8000410248600249012008607047885E0010C6
:103E900000E100E010B5082806D00121090388429E
:103EA00001D101F037FC10BDFDF700FC10BD05216C
:103EB00009070968014202D00020C0437047002072
:103EC000704701460520000700680840704705223A
:103ED0001207002901D010617047506170470140FE
:103EE00005221207116141405161704705221207F6
:103EF000002908D0012908D0022908D0032901D1BE
:103F0000D06210637047906202E09062F9E7D0627D
:103F10005063704700B501208007C26B90B2FFF775
:103F2000D0FF110C4140114201D0002000BD012002
:103F300000BDF0B50D4603460021FFF7C8FF98B25B
:103F400005231B071A6802409E00F46B01040F460C
:103F50000743BC43002D0DD0012D10D01104214387
:103F60000143144604409C625C6342409A621A63B7
:103F7000F163F0BD0146214398621863F8E72143DD
:103F8000014398625863F3E705231B075A68491CED
:103F900003D082435A60586870470243FAE7000032
:103FA000064A07490020401C904201D90120704771
:103FB0004B689B07F7D4002070470000FFFF00000C
:103FC0000080004010B50B4B00241C731C805C80EB
:103FD0009C80DA8099601C61012189020A051160C8
:103FE0005160054A09021160FF2108310843034965
:103FF000086010BD0C6B001000E100E00080004084
:1040000070B50446FFF7CCFF012830D01849488826
:10401000184D194A002814D00220087360060523A1
:10402000000E1B04C018A8600123104602E05B1CB0
:10403000834208D80E7B032E05D00E7B042EF6D1CA
:1040400001E0032008730D4B60001843A8600120B5
:1040500002E0401C904202D80B7B052BF9D1087B73
:10406000052804D10869002801D00869804770BD7F
:104070000C6B001000800040FFFF000001000500F5
:1040800010B50446FFF78CFF01281DD00F49012011
:10409000087360060522000E120480180C4A906016
:1040A00001200C4A02E0401C904205D80B7B052BF6
:1040B00002D00B7B042BF6D1087B052804D10869BC
:1040C000002801D00869804710BD00000C6B00106B
:1040D00000800040FFFF000070B50E480079002806
:1040E00017D10D4880470D4CA0684569002D10D0B0
:1040F00000F018F82989401A094980B2884208D886
:10410000A0680168090104D401680122D2061143A4
:10411000016070BDC0F40010A7530101F45E0010EF
:104120003075000010B5084C01212046FBF7ECFF6C
:104130002046FBF7E7FF0028FAD10348E038FBF7F9
:10414000E1FF000910BD0000FC00002F044880685A
:104150004069002801D0002070470120704700000E
:10416000F45E0010F8B50C460A2B20D02788A07901
:10417000FFF714FA0546A0880835093083B20A22F1
:104180000D4E11460B48B04706460780A088B08008
:104190003046A28829460830FCF7DAF8064930464E
:1041A0002E3188470549A07988470020F8BD0220B4
:1041B000F8BD0000011400005D3300015D2B00011B
:1041C00070B50C4608880E49884705460D49208879
:1041D0008847002D12D0002810D040880005400FDD
:1041E0000CD029890423094D0B220748A8472188B0
:1041F00001800021817005492E318847002070BD63
:104200002DAF0001B5B000012B2C00005D33000183
:1042100010B50300FCF70FFF060F0406080A0C0F89
:10422000202006E0102004E0082002E0042000E046
:104230000220FFF7A9FE10BD7D21484310B50B49B0
:1042400000244A7880188207920F4A700849012298
:10425000096B8008CB1712058A1863412146FBF7CA
:1042600055FF0903000D084310BD0000F45E001067
:10427000C0DB00100EB50120FFF7ECF90024234647
:1042800022464D492046009400F0C8F9FCF744FD51
:104290004B494A4888474A494A48891D884700236C
:1042A0000122494949480292019100901A46194653
:1042B0001846FFF7ABF87D204549C0018847FEF757
:1042C00085F901F03FFA00F011FF052001F0FCFA3A
:1042D00084F31088FFF700FFFEF75AF9FEF708FB9A
:1042E00004460220FEF794FA02463021394B64203E
:1042F00001910290194600941F392220FDF798FD84
:10430000354902200870354F354DFFF7E5FE2E6820
:1043100033488030076001F05DFA04004AD0FFF7AF
:10432000FDF8012806D0012C02D0022814D041E06B
:1043300000283FD00024E44321460520FFF768FF12
:1043400000210420FFF764FF002226491046FFF7F2
:1043500013FA2146042027E0022C02D0032C12D0AD
:1043600028E00024E44321460520FFF751FF002107
:104370000320FFF74DFF1C4A21210120FFF7FCF924
:104380002146032010E00024E44321460520FFF7E6
:104390003FFF00210220FFF73BFF134A01210220CB
:1043A000FFF7EAF921460220FFF732FF002105203E
:1043B000FFF72EFF2E60A8E70024F400914A0010BA
:1043C000395A0101694A00109C090000285F001059
:1043D00097570101056A0010945E0010FFFFFF1F50
:1043E00000E100E0DFFDFF03D5500010F0B50B3019
:1043F000C108C900144F0026144A0FE003688B421D
:104400000BD38B4205D95C1A4318456830C3083B6F
:1044100000E04368136002C004E0021D1068002839
:10442000ECD13046002803D13868002801D00020A4
:10443000F0BD064A06481060064A121AD208D20099
:1044400044C001203860D7E7205F00101C5F0010D7
:10445000EC6E0010E86E0010F8B50F4604460546F5
:1044600001260AE0114880470120400728431049EF
:1044700000BA8860012000032D18761EF2D20025B4
:10448000FF260136094B781932460A49943398477A
:10449000064B601932460749BA3398470120FF3569
:1044A000000301358542EDDBF8BD00003B11000142
:1044B000E8FFFF3F7C6B001038B5054600200C4636
:1044C0000090FFF715FA1F2000210003FFF7C4FF3B
:1044D0006A460421002000F041F8024A214628469D
:1044E000904738BDAD20000170B5FFF701FA0422F6
:1044F000174E16490020B047042216A11348FBF7B7
:1045000052FF002816D00024FF2201321F252D0360
:104510000E492846B04704220EA10C48FBF743FF82
:10452000002809D00022002C08D0002A0CD100213C
:10453000284607E00124E7E70122F4E7002A03D038
:1045400029460020FFF788FF70BD00007C6B00103B
:10455000CF1100014E56445300000000F7B50E463F
:1045600005468119FF300130000A00020F4F8142D9
:1045700017D9441B21462846029AB847E71DF93748
:104580000298B74205D30219311B084B28199847E6
:10459000FEBD02192819FF21044B013198473C4602
:1045A000ECE731462846029AB847FEBDD11F00010C
:1045B000F8B50C460146002501262846002903D0FF
:1045C000154E012927D121E00120207002206070C2
:1045D000024621460120FFF7BBFB801CC0B22654D7
:1045E000401CC5B22A4621460120FFF7B1FB401905
:1045F000C0B20EE02154401CC7B2705D3A4621465D
:10460000FFF7A6FBC0196D1CC0B2EDB2715D0029A9
:10461000F0D100212154F8BDD8680010FFB5012762
:1046200085B014460E46BF07386C8003FCD5B968C8
:104630003846890089080025B96001212A46890584
:1046400000F0E6FD386C0004FCD5002C18D1621E89
:104650000124E4022146384600F0C5FD20223F2116
:10466000384600F0C0FD386CC003FCD5002221465E
:10467000384600F0B8FD10223F21384600F0B3FD67
:104680000120000700687949884201D07848C56355
:104690007848864201D9420500E000227749784CEB
:1046A0000A437548A16A814310400843A062764DD1
:1046B0007449A878002801D0744A00E0744A38464A
:1046C00000F091FD032212040120A169000491432E
:1046D0000843A0616F48A978002901D06E4A00E024
:1046E0006E4AE169814310400843E0616C48A97853
:1046F000002901D06B4900E06B49626A824308409F
:10470000104360626949A878002802D011239B04F5
:1047100001E015239B04226B8A4319401143216356
:10472000A9786020002901D0602100E02021A26B3F
:10473000824308401043A0635D4A5E48E16B9143A9
:104740000843E0635E4A5C4B5C491069984301434F
:104750001161052109040A460020FEF7E5FF5949C9
:1047600030200A46FEF7E0FF002257494C20FEF7B2
:10477000DBFF11221321120309037820FEF7D4FF77
:10478000262211468420FEF7CFFF089F0E9DFFF7DB
:10479000AFF82B46012109034C4D3A460020A847AB
:1047A000002F04D04B484A4941634B498163FFF7CE
:1047B0009BFE4B494948884748494A4834398863F1
:1047C0004A49494888474849494810310860022009
:1047D0006946454A08803D4D921D05203835A84759
:1047E000002805D07D204049C0001039C882888249
:1047F0003A4840493830884738483F494C30416052
:104800003E498160192149018162912181813D499F
:104810003B48C86001206946088202AA04A910200A
:10482000A847002802D01121684601726846007A24
:104830003F21420449040125606AAD0788431140C5
:10484000014361620B48864201D9012000E000204B
:1048500000F066F800222C49D243284600F0D8FC2C
:104860002A484069FBF76BFD09B0F0BDF2F2F2F2A5
:10487000C0FF00100024F400007000BC001000080D
:10488000800000403F309DFFF45E00101010850551
:10489000102085050300007F0300000E0300002E9A
:1048A0003F0E0080280C0080280A00801E00DC00DB
:1048B0000F7E00000E7A00001E1F0000101800007E
:1048C00000C00040008080000008000F4F21000160
:1048D0005D45001080D00010B9440010F4F20010C3
:1048E000D10E000111390010F0DB00106F870001BC
:1048F000394200104555010191360010BD360010B7
:1049000011490010C0F4001001FC7F00002000409D
:104910000248C16B02221143C1637047C0FF0010FF
:10492000F8B545498847464C002244492046FEF7E1
:104930001FFE0125AD07002229462046FEF71EFE78
:10494000404EE068B043E060002229467820FEF740
:10495000EBFE0027FF433A466114284600F058FC5E
:104960000022E9132046FEF703FE3A46E9132046EB
:10497000FEF7FEFD286C0004FCD52F4900207431A1
:104980008847606860603A462F492046FEF7F6FD8A
:10499000FF20F530FEF7A0FE274A00210120E0327B
:1049A00090476268254920464839FEF7E7FD002216
:1049B00025492046FEF7E2FDFF2212040F2120695F
:1049C00009059043014321612069400840002061AE
:1049D0001E4A1F492046FEF7CBFD3A46294620468F
:1049E000FEF7CCFD1B4AFF21A06803319043014331
:1049F000A160E068B0430643E6600124A86864074C
:104A0000A0432043A86014488047A868A043A8603A
:104A100013491248884713488047002000F0FEFAE7
:104A200000231A461946184600F0CAFA3A462946A3
:104A30007820FEF779FEF8BD390300014040000000
:104A400000C0004040404000000040404040800125
:104A500040408003070700008D05000100A0FFFF14
:104A6000DF8700014D56010170B50D460646064927
:104A7000144614208847022805D12246034C1423EB
:104A800029463046A04770BD892D000103D10001A1
:104A900010B500F021FA10BD70B5425C0025D21FA0
:104AA000ED4344181300FCF7C6FA05041A293D4AE1
:104AB0004F006078FDF72EF8FF2804D1EF2225A1E2
:104AC0002AA0FEF7D5FA6078062802D00D2803D078
:104AD00030E0FCF76BFD2DE0FEF73AFE2AE060784F
:104AE000FEF702FE6078062802D00D2803D021E0F0
:104AF000FCF7F4FD1EE0FEF70BFE1BE060780106FC
:104B0000A07800040843E1780902014320790843B2
:104B10001749142801D314225043086000F018FAF2
:104B2000052070BD6078002806D0012804D011A0AF
:104B3000FCF75AFA022070BD00F0A2FAFAE715A0BD
:104B4000FCF752FA284670BD12A0FCF74DFA01207E
:104B500070BD00002E2E5C7372635C70726F746F98
:104B6000636F6C5F6C69622E6300000030000000B0
:104B70005C5E001050726F746F636F6C20436861ED
:104B8000722E204E6F7420537570706F727465644E
:104B90000D0A0000436F6D6D616E64204E6F7420CE
:104BA000537570706F727465640D0A00FFB58DB037
:104BB0000F2008900021042009910B900E980E46BA
:104BC00044780A91072C00D907245048012C03800F
:104BD000047353D920463C2148434D4D8C30A8479F
:104BE0000646204613214843A84700250A9012E0B4
:104BF0001422484902A8FBF7ABFB6946C87A132286
:104C00004019C87213200A996843401802A9FBF79B
:104C10009FFB6D1CEDB2A542EAD38C223E49304683
:104C2000FBF796FB002527E03C20684387193846B0
:104C30003146503014225031FBF78AFB13200A9979
:104C4000684340183866384631466430142264316F
:104C5000FBF77EFB102231A1B86EFBF779FBB86E33
:104C6000142201784919017038463146783078317C
:104C7000FBF76EFB6D1CEDB2A542D5D30721204694
:104C8000641EE4B200280DD0089A0998530FC000A2
:104C90001843D20009900A430B980892C01CC0B276
:104CA0000B90ECE70E984078012801D81A4900E0F3
:104CB00031460F980191154C0090002308A9201D42
:104CC0000B9AFEF717FA124F05465237002E01D005
:104CD0003046B8470A98002800D0B847144AA08840
:104CE00000219047002D03D10121124A1420904742
:104CF0002188074C012314220F48D434A0470F49C0
:104D000005708847002011B0F0BD0000D46E00107F
:104D100089320001FC5B0010E85A0010019612165F
:104D2000549275B5A245FDAB39C44BD400000000C8
:104D3000D3B20001612D0001085000008B33000147
:104D4000F8B51D4C0D460888618888422FD1E97856
:104D500014292CD8A878227B904228D8A268174E14
:104D6000C240174FD20717D04300C018A288401D79
:104D70001018144B80B22A1D9847042314220B21CB
:104D80001148B04761880180A978A2884B00C918F2
:104D9000491D5118418008E00423218814220B4842
:104DA000B047618801808A21C170B84702E0812044
:104DB00000F07CF80020F8BDD46E00105D330001D7
:104DC0008B330001B5B10001082C00000450000035
:104DD00070B50C4C0C4AA0880021904704230C4D60
:104DE000218814220948A847214649880180218941
:104DF000418007492E3188470121064A14209047F7
:104E000070BD0000D46E0010D3B20001015000004C
:104E10005D330001612D0001F8B50E4600206946A2
:104E20001E4C0880238031886180F1781C4F012955
:104E300001D0002524E071680025A16011E0A06880
:104E4000E840C00700D00120694608806800A188BA
:104E50002818801D081880B26A460221B8476D1CC8
:104E6000EDB2207BA842EAD80DE06800A18828189E
:104E7000801D081880B26A460221B8476D1CEDB249
:104E8000207BA842F1D8074AB178A0889047022138
:104E9000054A142090470020F8BD0000D46E001091
:104EA000B5B10001D3B20001612D000170B5074C0E
:104EB00005460423074E218814220548B04761881F
:104EC0000180044985702E31884770BDD46E001072
:104ED000025000005D33000110B50648002101605A
:104EE00041608160C16000F01FFB0021024A142074
:104EF000904710BDD46E0010612D000170B50546BD
:104F00000E46002000E0401CA842FCDB002406E026
:104F100021463046FFF7C0FD411C03D02418AC42A7
:104F2000F6DB70BD562203A108A0FEF7A1F82C46BF
:104F3000F5E700002E2E5C7372635C70726F746F05
:104F4000636F6C5F6C69622E6300000030000000CC
:104F50000348054B0088152182B20248184700001B
:104F60005C5E0010095400003B2F000110B5104892
:104F70008047114A0F4BFF20916803309943084343
:104F80009060052109040A460020FEF7CDFB0B497D
:104F900030200A46FEF7C8FB01210022C9024C203E
:104FA000FEF7C2FB262211468420FEF7BDFB10BD92
:104FB0004F5701010707000000C00040008080003B
:104FC000F8B51C4616460D46002811D005240022CF
:104FD000240621461046FEF7B1FB2A462146002052
:104FE000FEF7ACFB3246E1013020FEF7A7FBF8BD2F
:104FF000052700227F0639461046FEF79FFB2A460A
:1050000039460020FEF79AFB324679013020FEF740
:1050100095FBE2061F21C9060420E6E710B5064B02
:105020004021DA6A0C068A4301401143D962D86AEA
:10503000A043D86210BD0000800000401421484306
:1050400010B506490122096B1205CB1700248A18F6
:105050006341010B0005FBF7ACF810BDC0DB00108D
:1050600002460020054903E0934205D0401CC0B22F
:105070000B5C002BF8D1FF2070470000D8680010AF
:1050800070B505460D49002008702846FFF790FAD4
:1050900004460B4801220068AA408168074B9143EF
:1050A0008160408822462946FDF732FB002000E05F
:1050B000401CA042FCDBFFF74BFF70BDC468001032
:1050C000845E00100249CA6B0243CA637047000045
:1050D000C0FF001010B5FFF749FF00F0A7FB272025
:1050E0000149C043086010BD80E200E010B50848E7
:1050F000DE22C1681143074AC160540606492046B2
:1051000000F078F82022FE21204600F07AF810BD49
:10511000945E001020FCFFFFFEFCFFF7F8B50126AF
:10512000B605340200223146204600F071F8206CAA
:105130000004FCD50125ED0700222946204600F099
:1051400067F8AF0B3A4611463420FEF7EDFAA80C8B
:1051500020606060002239463420FEF7E5FAEF1740
:105160003A462946204600F053F83A463146204652
:1051700000F04EF8F8BD00008169C901FCD4074B6E
:1051800001218907064A984201D1881103E0904223
:1051900002D10120400608607047000000780040FE
:1051A00000A800408030436B8B431140194341639A
:1051B00070478030836B8B43114019438163704784
:1051C00083688B43114019438160704783688B4328
:1051D00011401943816070478030036A8B4311404E
:1051E0001943016270478030036A8B4311401943B1
:1051F00001627047803003698B431140194301619C
:105200007047803043698B431140194341617047B7
:10521000803043698B4311401943416170478030AE
:1052200083698B43114019438161704770B50B4C02
:105230000546410020680646FBF73BF8401E03D4B4
:1052400007490204656004E0012149060022D243B7
:10525000666001208007FFF7B9FF70BDA85E0010EF
:105260000000FF0370B50B4C054641006068064620
:10527000FBF71FF8401E03D470210201A56003E074
:1052800040210022D243A66001208007FFF79EFF45
:1052900070BD0000A85E001010B5044641000C4827
:1052A0004068FBF706F8401E03D4032189068206F6
:1052B00002E00121C9060A46064B012000079C4274
:1052C00000D10243014301208007FFF77FFF10BD9B
:1052D000A85E00100024F400F8B50F460300244A2D
:1052E000244E25492548264C264D06D0012B17D0A3
:1052F000022B19D0032B2CD11AE0012F03D08742A7
:1053000001D0214800223060886A43005B08D00F3A
:10531000C00718438862206C8003FCD5002718E082
:105320001A482746306014E00127FF07306010E07C
:1053300001235B07042F12D04A699F112046BA430C
:105340004A6100221946FFF741FF7D2000022F46E7
:1053500030603A4629462046FFF738FFF8BD012065
:105360004F69800287434F6119462046EBE70000F2
:10537000FFFFFFFFA85E0010800000400048E8012A
:1053800000000040000000C00024F400002D3101A6
:10539000410010B508484068FAF78BFF401E02D460
:1053A0000F21024602E008210022D243012080079B
:1053B000FFF70CFF10BD0000A85E001070B504469A
:1053C000154849004068FAF774FF0021134D4B1E41
:1053D000401E0A46AC4202D0114DAC4208D1002812
:1053E00003DB0F210902020211E00121C9020DE0D5
:1053F0000C4DAC4202D00C4DAC4208D1002803DB6E
:105400000F210903020302E00121C9031A4601200A
:105410008007FFF7DBFE70BDA85E00100070004043
:105420000078004000A0004000A8004010B586B001
:105430000948019008380290084803900521684601
:105440000182012141820498009001A90EC9044CF7
:105450001520A04706B010BD7C5A0010825E0010D7
:10546000FD2C000170B51E48FF2260C886B00132D5
:105470001C491D48FAF76CFF1B481C4941621C4936
:1054800041631C498030C1661B49C1671C491B4CE4
:105490008868C968E160A06060C4FF2211321949C0
:1054A0001948083CFAF754FF174818498030416101
:1054B000174941631749C16317494164174801946B
:1054C00002900221684601820121418204980090E5
:1054D000144C134B0B20029A0199A04706B070BDE3
:1054E000D85A001008780101C46C0010B93A0010B5
:1054F000013B0010A9300010C1410010346B0010B6
:10550000507A010140790101C46D00109911010127
:10551000111501014F180101431A01010C5F001020
:1055200098CE0010FD2C000110B586B009480190FE
:10553000083802900848039003216846018201213F
:1055400041820498009001A90EC9044C1420A04780
:1055500006B010BDE45B0010145F0010FD2C0001CC
:105560001CB501210446024649044803FFF721FE09
:10557000002C16D004206946888000200090C720A7
:10558000084CC0432080084B6A4601A91120984767
:10559000002806D105490098054A4118914200D2D9
:1055A00020801CBDE45E0010872100017F02FFFF08
:1055B0007E02000030B50E4A0B4D0C4C0D4B110411
:1055C000A84201D1C0030DE0A04203D1012252073D
:1055D0000A6003E0904201D1096030BD9842FCD1DD
:1055E0000120C007086030BD0020004000300040AE
:1055F00000400040005000400A4A0B49904201D14F
:105600000A4903E0884206D108491831496800294F
:1056100001D0002070470069000601D501207047C5
:10562000022070470070004000A00040DC6A0010BB
:1056300001690906FCD4074B01218907064A9842F3
:1056400001D1081103E0904202D10120C006086098
:10565000704700000070004000A0004070B51A4C78
:105660000121184B8907194DA04201D10E1103E009
:10567000A84202D10126F6064E6051005618144A7F
:10568000915DB2185678090436029278314311437D
:10569000816082680F4AA04206D1114614130E4A57
:1056A00014606400146004E0A84202D1054B114666
:1056B0001833C160002018615860D86018605861C4
:1056C000986070BDDC6A00100070004000A00040CF
:1056D000A45A0010A108400000E100E00B4A10B5F8
:1056E000904201D1042200E00822094B00295C68A5
:1056F00009D014435C600122C368520493430A40FA
:105700001A43C26010BD9443F4E7000000700040EB
:10571000945E001010B5FDF75BFE002807D0064828
:10572000007A002801D000F0A7F804488047044917
:105730000120884710BD0000945E0010B1570101A0
:105740005931000110B51A4C18490020A047002813
:1057500005D0FF22FB3217A11BA0FDF789FC1B49D6
:105760000C20A047002804D0194A12A116A0FDF76A
:105770007FFC0E20FEF73AFE00220270427082701B
:10578000C270027101464271072088710D20C871F4
:1057900009200872642048728A72CA720420087351
:1057A0004A730D20FFF7AAFB10BD0000391D001041
:1057B0008D3100012E2E5C7372635C7573725F64B1
:1057C000657369676E2E630030000000F11C0010E5
:1057D0000102000070B5134D2C78032C06D0022C6A
:1057E00010DB6868002807D001240BE0FEF7AEFC50
:1057F0000028F6D10224F4E7022C03DBFEF78AFB33
:1058000000280BD00848FFF7F7FE022C01DB002828
:1058100002D0012803D000E00124204670BD002002
:1058200070BD0000945E00100070004038B50C4C54
:105830000B220A492046FFF711FFE0680221884346
:105840000143E160E068042188430143E1607F2077
:10585000032269460006FEF7B5FB38BD00127A0048
:10586000007000403222034B152101481847000008
:10587000055400003B2F000170B5124900208847F5
:1058800001210025C902ED43CC042A462046FFF73A
:10589000A3FC20223F212046FFF79EFC0022211579
:1058A0002046FFF7AEFCFF202D300021BFF36F8FA5
:1058B000491C8142FAD301212A4649072046FFF7B5
:1058C0007FFC70BD8F57010170B5FF2100250131AC
:1058D0000446ED438E052A463046FFF7A0FC012121
:1058E00010488B02CA050161042C15D01C46C36800
:1058F000114600250B43C36000223046FFF781FCB0
:1059000001212A4649073046FFF75AFC224606493C
:105910003046FFF76FFC70BD1446C26819460A4353
:10592000C260E9E7945E0010000480000548044965
:105930000160054A0121D16000210160704700002B
:1059400051E5CC1A001C0040001000400554000036
:10595000911B0010015400004D260010025400005D
:105960004D26001003540000A91D0010075400002C
:10597000F51B001008540000F51B00103A30000021
:10598000D52200103E3000006D2400103D30000094
:10599000992200103F3000003122001046300000F4
:1059A000BD2200103C300000052300103230000002
:1059B000E91D001029300000C52100104230000010
:1059C000CD23001038300000ED1F00102B300000F8
:1059D0003923001035300000ED2000103430000075
:1059E000392000101F300000551F00102D3000001E
:1059F000DD1E00102E300000152400102C2C00009D
:105A00009124001003180000492F00100D1C000005
:105A1000352C0010051C0000892E0010071C00000A
:105A2000E12C0010091C0000312B00101A1C000092
:105A3000A92A0010041C0000192E00101D1C0000D3
:105A4000452E0010015000009D270010025000005C
:105A5000E9270010045000004D27001005500000F9
:105A60005126001006500000D926001008500000F2
:105A7000C52600104C590010250000000000000051
:105A80000000000000000000000000000000000016
:105A90000000000000000000000000000000000006
:105AA0000000000001A02B00D01500680B00340599
:105AB00000222E001A03001117000D0100082C000F
:105AC000073400062100041600033A00020B00010F
:105AD0001D00010500010000C46C00102000000042
